{
  "_format": "hh-sol-artifact-1",
  "contractName": "Parcel",
  "sourceName": "contracts/Parcel.sol",
  "abi": [
    {
      "inputs": [],
      "stateMutability": "nonpayable",
      "type": "constructor"
    },
    {
      "anonymous": false,
      "inputs": [
        {
          "indexed": true,
          "internalType": "uint256",
          "name": "id",
          "type": "uint256"
        },
        {
          "indexed": false,
          "internalType": "uint256",
          "name": "price",
          "type": "uint256"
        },
        {
          "indexed": false,
          "internalType": "string",
          "name": "state",
          "type": "string"
        },
        {
          "indexed": false,
          "internalType": "string",
          "name": "city",
          "type": "string"
        },
        {
          "indexed": false,
          "internalType": "string",
          "name": "clientFullName",
          "type": "string"
        },
        {
          "indexed": false,
          "internalType": "string",
          "name": "clientPhoneNumber",
          "type": "string"
        }
      ],
      "name": "ParcelCreated",
      "type": "event"
    },
    {
      "anonymous": false,
      "inputs": [
        {
          "indexed": true,
          "internalType": "uint256",
          "name": "id",
          "type": "uint256"
        },
        {
          "indexed": false,
          "internalType": "string",
          "name": "status",
          "type": "string"
        },
        {
          "indexed": false,
          "internalType": "uint256",
          "name": "timestamp",
          "type": "uint256"
        },
        {
          "indexed": false,
          "internalType": "address",
          "name": "updatedBy",
          "type": "address"
        }
      ],
      "name": "ParcelStatusUpdated",
      "type": "event"
    },
    {
      "inputs": [
        {
          "internalType": "uint256",
          "name": "_price",
          "type": "uint256"
        },
        {
          "internalType": "string",
          "name": "_state",
          "type": "string"
        },
        {
          "internalType": "string",
          "name": "_city",
          "type": "string"
        },
        {
          "internalType": "string",
          "name": "_clientFullName",
          "type": "string"
        },
        {
          "internalType": "string",
          "name": "_clientPhoneNumber",
          "type": "string"
        }
      ],
      "name": "createParcel",
      "outputs": [],
      "stateMutability": "nonpayable",
      "type": "function"
    },
    {
      "inputs": [
        {
          "internalType": "uint256",
          "name": "_id",
          "type": "uint256"
        }
      ],
      "name": "getParcel",
      "outputs": [
        {
          "components": [
            {
              "internalType": "uint256",
              "name": "id",
              "type": "uint256"
            },
            {
              "internalType": "uint256",
              "name": "price",
              "type": "uint256"
            },
            {
              "internalType": "string",
              "name": "state",
              "type": "string"
            },
            {
              "internalType": "string",
              "name": "city",
              "type": "string"
            },
            {
              "internalType": "string",
              "name": "clientFullName",
              "type": "string"
            },
            {
              "internalType": "string",
              "name": "clientPhoneNumber",
              "type": "string"
            }
          ],
          "internalType": "struct Parcel.ParcelData",
          "name": "",
          "type": "tuple"
        }
      ],
      "stateMutability": "view",
      "type": "function"
    },
    {
      "inputs": [
        {
          "internalType": "uint256",
          "name": "_id",
          "type": "uint256"
        }
      ],
      "name": "getParcelHistory",
      "outputs": [
        {
          "components": [
            {
              "internalType": "uint256",
              "name": "parcelId",
              "type": "uint256"
            },
            {
              "internalType": "string",
              "name": "status",
              "type": "string"
            },
            {
              "internalType": "uint256",
              "name": "timestamp",
              "type": "uint256"
            },
            {
              "internalType": "address",
              "name": "updatedBy",
              "type": "address"
            }
          ],
          "internalType": "struct Parcel.ParcelHistoryItem[]",
          "name": "",
          "type": "tuple[]"
        }
      ],
      "stateMutability": "view",
      "type": "function"
    },
    {
      "inputs": [],
      "name": "getParcels",
      "outputs": [
        {
          "components": [
            {
              "internalType": "uint256",
              "name": "id",
              "type": "uint256"
            },
            {
              "internalType": "uint256",
              "name": "price",
              "type": "uint256"
            },
            {
              "internalType": "string",
              "name": "state",
              "type": "string"
            },
            {
              "internalType": "string",
              "name": "city",
              "type": "string"
            },
            {
              "internalType": "string",
              "name": "clientFullName",
              "type": "string"
            },
            {
              "internalType": "string",
              "name": "clientPhoneNumber",
              "type": "string"
            }
          ],
          "internalType": "struct Parcel.ParcelData[]",
          "name": "",
          "type": "tuple[]"
        }
      ],
      "stateMutability": "view",
      "type": "function"
    },
    {
      "inputs": [],
      "name": "parcelCount",
      "outputs": [
        {
          "internalType": "uint256",
          "name": "",
          "type": "uint256"
        }
      ],
      "stateMutability": "view",
      "type": "function"
    },
    {
      "inputs": [
        {
          "internalType": "uint256",
          "name": "",
          "type": "uint256"
        },
        {
          "internalType": "uint256",
          "name": "",
          "type": "uint256"
        }
      ],
      "name": "parcelHistory",
      "outputs": [
        {
          "internalType": "uint256",
          "name": "parcelId",
          "type": "uint256"
        },
        {
          "internalType": "string",
          "name": "status",
          "type": "string"
        },
        {
          "internalType": "uint256",
          "name": "timestamp",
          "type": "uint256"
        },
        {
          "internalType": "address",
          "name": "updatedBy",
          "type": "address"
        }
      ],
      "stateMutability": "view",
      "type": "function"
    },
    {
      "inputs": [
        {
          "internalType": "uint256",
          "name": "",
          "type": "uint256"
        }
      ],
      "name": "parcels",
      "outputs": [
        {
          "internalType": "uint256",
          "name": "id",
          "type": "uint256"
        },
        {
          "internalType": "uint256",
          "name": "price",
          "type": "uint256"
        },
        {
          "internalType": "string",
          "name": "state",
          "type": "string"
        },
        {
          "internalType": "string",
          "name": "city",
          "type": "string"
        },
        {
          "internalType": "string",
          "name": "clientFullName",
          "type": "string"
        },
        {
          "internalType": "string",
          "name": "clientPhoneNumber",
          "type": "string"
        }
      ],
      "stateMutability": "view",
      "type": "function"
    },
    {
      "inputs": [
        {
          "internalType": "uint256",
          "name": "_id",
          "type": "uint256"
        },
        {
          "internalType": "string",
          "name": "_status",
          "type": "string"
        }
      ],
      "name": "updateParcelStatus",
      "outputs": [],
      "stateMutability": "nonpayable",
      "type": "function"
    }
  ],
  "bytecode": "0x608060405234801561001057600080fd5b506000600281905550611d51806100286000396000f3fe608060405234801561001057600080fd5b50600436106100885760003560e01c80639388ae4f1161005b5780639388ae4f14610127578063a0fa8ede14610143578063baf6574314610178578063df6f245a1461019657610088565b80632e4219411461008d57806339108982146100a95780634d0434f2146100d95780637e1e18a814610109575b600080fd5b6100a760048036038101906100a2919061115e565b6101c9565b005b6100c360048036038101906100be91906111ba565b6102ef565b6040516100d091906113db565b60405180910390f35b6100f360048036038101906100ee91906111ba565b61045d565b604051610100919061149b565b60405180910390f35b6101116106e5565b60405161011e919061161d565b60405180910390f35b610141600480360381019061013c919061163f565b610a0f565b005b61015d600480360381019061015891906111ba565b610c41565b60405161016f96959493929190611783565b60405180910390f35b610180610e9d565b60405161018d9190611800565b60405180910390f35b6101b060048036038101906101ab919061181b565b610ea3565b6040516101c0949392919061186a565b60405180910390f35b6001600083815260200190815260200160002060405180608001604052808481526020018381526020014281526020013373ffffffffffffffffffffffffffffffffffffffff16815250908060018154018082558091505060019003906000526020600020906004020160009091909190915060008201518160000155602082015181600101908161025b9190611ac2565b506040820151816002015560608201518160030160006101000a81548173ffffffffffffffffffffffffffffffffffffffff021916908373ffffffffffffffffffffffffffffffffffffffff1602179055505050817fce25c2d33c245a440f1693835cdce29952f3f85586a25e26ce398bf7e4b362dc8242336040516102e393929190611b94565b60405180910390a25050565b606060016000838152602001908152602001600020805480602002602001604051908101604052809291908181526020016000905b82821015610452578382906000526020600020906004020160405180608001604052908160008201548152602001600182018054610361906118e5565b80601f016020809104026020016040519081016040528092919081815260200182805461038d906118e5565b80156103da5780601f106103af576101008083540402835291602001916103da565b820191906000526020600020905b8154815290600101906020018083116103bd57829003601f168201915b50505050508152602001600282015481526020016003820160009054906101000a900473ffffffffffffffffffffffffffffffffffffffff1673ffffffffffffffffffffffffffffffffffffffff1673ffffffffffffffffffffffffffffffffffffffff168152505081526020019060010190610324565b505050509050919050565b610465610f98565b6000808381526020019081526020016000206040518060c001604052908160008201548152602001600182015481526020016002820180546104a6906118e5565b80601f01602080910402602001604051908101604052809291908181526020018280546104d2906118e5565b801561051f5780601f106104f45761010080835404028352916020019161051f565b820191906000526020600020905b81548152906001019060200180831161050257829003601f168201915b50505050508152602001600382018054610538906118e5565b80601f0160208091040260200160405190810160405280929190818152602001828054610564906118e5565b80156105b15780601f10610586576101008083540402835291602001916105b1565b820191906000526020600020905b81548152906001019060200180831161059457829003601f168201915b505050505081526020016004820180546105ca906118e5565b80601f01602080910402602001604051908101604052809291908181526020018280546105f6906118e5565b80156106435780601f1061061857610100808354040283529160200191610643565b820191906000526020600020905b81548152906001019060200180831161062657829003601f168201915b5050505050815260200160058201805461065c906118e5565b80601f0160208091040260200160405190810160405280929190818152602001828054610688906118e5565b80156106d55780601f106106aa576101008083540402835291602001916106d5565b820191906000526020600020905b8154815290600101906020018083116106b857829003601f168201915b5050505050815250509050919050565b6060600060025467ffffffffffffffff81111561070557610704611033565b5b60405190808252806020026020018201604052801561073e57816020015b61072b610f98565b8152602001906001900390816107235790505b5090506000600190505b6002548111610a07576000808281526020019081526020016000206040518060c00160405290816000820154815260200160018201548152602001600282018054610792906118e5565b80601f01602080910402602001604051908101604052809291908181526020018280546107be906118e5565b801561080b5780601f106107e05761010080835404028352916020019161080b565b820191906000526020600020905b8154815290600101906020018083116107ee57829003601f168201915b50505050508152602001600382018054610824906118e5565b80601f0160208091040260200160405190810160405280929190818152602001828054610850906118e5565b801561089d5780601f106108725761010080835404028352916020019161089d565b820191906000526020600020905b81548152906001019060200180831161088057829003601f168201915b505050505081526020016004820180546108b6906118e5565b80601f01602080910402602001604051908101604052809291908181526020018280546108e2906118e5565b801561092f5780601f106109045761010080835404028352916020019161092f565b820191906000526020600020905b81548152906001019060200180831161091257829003601f168201915b50505050508152602001600582018054610948906118e5565b80601f0160208091040260200160405190810160405280929190818152602001828054610974906118e5565b80156109c15780601f10610996576101008083540402835291602001916109c1565b820191906000526020600020905b8154815290600101906020018083116109a457829003601f168201915b505050505081525050826001836109d89190611c01565b815181106109e9576109e8611c35565b5b602002602001018190525080806109ff90611c64565b915050610748565b508091505090565b60026000815480929190610a2290611c64565b91905055506040518060c00160405280600254815260200186815260200185815260200184815260200183815260200182815250600080600254815260200190815260200160002060008201518160000155602082015181600101556040820151816002019081610a939190611ac2565b506060820151816003019081610aa99190611ac2565b506080820151816004019081610abf9190611ac2565b5060a0820151816005019081610ad59190611ac2565b50905050600160006002548152602001908152602001600020604051806080016040528060025481526020016040518060400160405280600781526020017f435245415445440000000000000000000000000000000000000000000000000081525081526020014281526020013373ffffffffffffffffffffffffffffffffffffffff168152509080600181540180825580915050600190039060005260206000209060040201600090919091909150600082015181600001556020820151816001019081610ba49190611ac2565b506040820151816002015560608201518160030160006101000a81548173ffffffffffffffffffffffffffffffffffffffff021916908373ffffffffffffffffffffffffffffffffffffffff16021790555050506002547f28a4450e9b0ae23b5f631ae238255d186c1b4fc82a46c59183faaeee68071c9c8686868686604051610c32959493929190611cac565b60405180910390a25050505050565b6000602052806000526040600020600091509050806000015490806001015490806002018054610c70906118e5565b80601f0160208091040260200160405190810160405280929190818152602001828054610c9c906118e5565b8015610ce95780601f10610cbe57610100808354040283529160200191610ce9565b820191906000526020600020905b815481529060010190602001808311610ccc57829003601f168201915b505050505090806003018054610cfe906118e5565b80601f0160208091040260200160405190810160405280929190818152602001828054610d2a906118e5565b8015610d775780601f10610d4c57610100808354040283529160200191610d77565b820191906000526020600020905b815481529060010190602001808311610d5a57829003601f168201915b505050505090806004018054610d8c906118e5565b80601f0160208091040260200160405190810160405280929190818152602001828054610db8906118e5565b8015610e055780601f10610dda57610100808354040283529160200191610e05565b820191906000526020600020905b815481529060010190602001808311610de857829003601f168201915b505050505090806005018054610e1a906118e5565b80601f0160208091040260200160405190810160405280929190818152602001828054610e46906118e5565b8015610e935780601f10610e6857610100808354040283529160200191610e93565b820191906000526020600020905b815481529060010190602001808311610e7657829003601f168201915b5050505050905086565b60025481565b60016020528160005260406000208181548110610ebf57600080fd5b906000526020600020906004020160009150915050806000015490806001018054610ee9906118e5565b80601f0160208091040260200160405190810160405280929190818152602001828054610f15906118e5565b8015610f625780601f10610f3757610100808354040283529160200191610f62565b820191906000526020600020905b815481529060010190602001808311610f4557829003601f168201915b5050505050908060020154908060030160009054906101000a900473ffffffffffffffffffffffffffffffffffffffff16905084565b6040518060c001604052806000815260200160008152602001606081526020016060815260200160608152602001606081525090565b6000604051905090565b600080fd5b600080fd5b6000819050919050565b610ff581610fe2565b811461100057600080fd5b50565b60008135905061101281610fec565b92915050565b600080fd5b600080fd5b6000601f19601f8301169050919050565b7f4e487b7100000000000000000000000000000000000000000000000000000000600052604160045260246000fd5b61106b82611022565b810181811067ffffffffffffffff8211171561108a57611089611033565b5b80604052505050565b600061109d610fce565b90506110a98282611062565b919050565b600067ffffffffffffffff8211156110c9576110c8611033565b5b6110d282611022565b9050602081019050919050565b82818337600083830152505050565b60006111016110fc846110ae565b611093565b90508281526020810184848401111561111d5761111c61101d565b5b6111288482856110df565b509392505050565b600082601f83011261114557611144611018565b5b81356111558482602086016110ee565b91505092915050565b6000806040838503121561117557611174610fd8565b5b600061118385828601611003565b925050602083013567ffffffffffffffff8111156111a4576111a3610fdd565b5b6111b085828601611130565b9150509250929050565b6000602082840312156111d0576111cf610fd8565b5b60006111de84828501611003565b91505092915050565b600081519050919050565b600082825260208201905092915050565b6000819050602082019050919050565b61121c81610fe2565b82525050565b600081519050919050565b600082825260208201905092915050565b60005b8381101561125c578082015181840152602081019050611241565b60008484015250505050565b600061127382611222565b61127d818561122d565b935061128d81856020860161123e565b61129681611022565b840191505092915050565b600073ffffffffffffffffffffffffffffffffffffffff82169050919050565b60006112cc826112a1565b9050919050565b6112dc816112c1565b82525050565b60006080830160008301516112fa6000860182611213565b50602083015184820360208601526113128282611268565b91505060408301516113276040860182611213565b50606083015161133a60608601826112d3565b508091505092915050565b600061135183836112e2565b905092915050565b6000602082019050919050565b6000611371826111e7565b61137b81856111f2565b93508360208202850161138d85611203565b8060005b858110156113c957848403895281516113aa8582611345565b94506113b583611359565b925060208a01995050600181019050611391565b50829750879550505050505092915050565b600060208201905081810360008301526113f58184611366565b905092915050565b600060c0830160008301516114156000860182611213565b5060208301516114286020860182611213565b50604083015184820360408601526114408282611268565b9150506060830151848203606086015261145a8282611268565b915050608083015184820360808601526114748282611268565b91505060a083015184820360a086015261148e8282611268565b9150508091505092915050565b600060208201905081810360008301526114b581846113fd565b905092915050565b600081519050919050565b600082825260208201905092915050565b6000819050602082019050919050565b600060c0830160008301516115016000860182611213565b5060208301516115146020860182611213565b506040830151848203604086015261152c8282611268565b915050606083015184820360608601526115468282611268565b915050608083015184820360808601526115608282611268565b91505060a083015184820360a086015261157a8282611268565b9150508091505092915050565b600061159383836114e9565b905092915050565b6000602082019050919050565b60006115b3826114bd565b6115bd81856114c8565b9350836020820285016115cf856114d9565b8060005b8581101561160b57848403895281516115ec8582611587565b94506115f78361159b565b925060208a019950506001810190506115d3565b50829750879550505050505092915050565b6000602082019050818103600083015261163781846115a8565b905092915050565b600080600080600060a0868803121561165b5761165a610fd8565b5b600061166988828901611003565b955050602086013567ffffffffffffffff81111561168a57611689610fdd565b5b61169688828901611130565b945050604086013567ffffffffffffffff8111156116b7576116b6610fdd565b5b6116c388828901611130565b935050606086013567ffffffffffffffff8111156116e4576116e3610fdd565b5b6116f088828901611130565b925050608086013567ffffffffffffffff81111561171157611710610fdd565b5b61171d88828901611130565b9150509295509295909350565b61173381610fe2565b82525050565b600082825260208201905092915050565b600061175582611222565b61175f8185611739565b935061176f81856020860161123e565b61177881611022565b840191505092915050565b600060c082019050611798600083018961172a565b6117a5602083018861172a565b81810360408301526117b7818761174a565b905081810360608301526117cb818661174a565b905081810360808301526117df818561174a565b905081810360a08301526117f3818461174a565b9050979650505050505050565b6000602082019050611815600083018461172a565b92915050565b6000806040838503121561183257611831610fd8565b5b600061184085828601611003565b925050602061185185828601611003565b9150509250929050565b611864816112c1565b82525050565b600060808201905061187f600083018761172a565b8181036020830152611891818661174a565b90506118a0604083018561172a565b6118ad606083018461185b565b95945050505050565b7f4e487b7100000000000000000000000000000000000000000000000000000000600052602260045260246000fd5b600060028204905060018216806118fd57607f821691505b6020821081036119105761190f6118b6565b5b50919050565b60008190508160005260206000209050919050565b60006020601f8301049050919050565b600082821b905092915050565b6000600883026119787fffffffffffffffffffffffffffffffffffffffffffffffffffffffffffffffff8261193b565b611982868361193b565b95508019841693508086168417925050509392505050565b6000819050919050565b60006119bf6119ba6119b584610fe2565b61199a565b610fe2565b9050919050565b6000819050919050565b6119d9836119a4565b6119ed6119e5826119c6565b848454611948565b825550505050565b600090565b611a026119f5565b611a0d8184846119d0565b505050565b5b81811015611a3157611a266000826119fa565b600181019050611a13565b5050565b601f821115611a7657611a4781611916565b611a508461192b565b81016020851015611a5f578190505b611a73611a6b8561192b565b830182611a12565b50505b505050565b600082821c905092915050565b6000611a9960001984600802611a7b565b1980831691505092915050565b6000611ab28383611a88565b9150826002028217905092915050565b611acb82611222565b67ffffffffffffffff811115611ae457611ae3611033565b5b611aee82546118e5565b611af9828285611a35565b600060209050601f831160018114611b2c5760008415611b1a578287015190505b611b248582611aa6565b865550611b8c565b601f198416611b3a86611916565b60005b82811015611b6257848901518255600182019150602085019450602081019050611b3d565b86831015611b7f5784890151611b7b601f891682611a88565b8355505b6001600288020188555050505b505050505050565b60006060820190508181036000830152611bae818661174a565b9050611bbd602083018561172a565b611bca604083018461185b565b949350505050565b7f4e487b7100000000000000000000000000000000000000000000000000000000600052601160045260246000fd5b6000611c0c82610fe2565b9150611c1783610fe2565b9250828203905081811115611c2f57611c2e611bd2565b5b92915050565b7f4e487b7100000000000000000000000000000000000000000000000000000000600052603260045260246000fd5b6000611c6f82610fe2565b91507fffffffffffffffffffffffffffffffffffffffffffffffffffffffffffffffff8203611ca157611ca0611bd2565b5b600182019050919050565b600060a082019050611cc1600083018861172a565b8181036020830152611cd3818761174a565b90508181036040830152611ce7818661174a565b90508181036060830152611cfb818561174a565b90508181036080830152611d0f818461174a565b9050969550505050505056fea264697066735822122073ce5b1e86ec97ec57df9a6efebd612e6b0da21de0175147332d44b927ca681664736f6c63430008180033",
  "linkReferences": {},
  "deployedLinkReferences": {}
}